{
  "contractName": "SlotMachine",
  "abi": [
    {
      "inputs": [],
      "stateMutability": "nonpayable",
      "type": "constructor"
    },
    {
      "anonymous": false,
      "inputs": [
        {
          "indexed": false,
          "internalType": "address",
          "name": "sender",
          "type": "address"
        },
        {
          "indexed": false,
          "internalType": "uint256",
          "name": "rand1",
          "type": "uint256"
        },
        {
          "indexed": false,
          "internalType": "uint256",
          "name": "rand2",
          "type": "uint256"
        },
        {
          "indexed": false,
          "internalType": "uint256",
          "name": "rand3",
          "type": "uint256"
        }
      ],
      "name": "Rolled",
      "type": "event"
    },
    {
      "inputs": [],
      "name": "coinPrice",
      "outputs": [
        {
          "internalType": "uint256",
          "name": "",
          "type": "uint256"
        }
      ],
      "stateMutability": "view",
      "type": "function",
      "constant": true
    },
    {
      "inputs": [],
      "name": "slotMachineFunds",
      "outputs": [
        {
          "internalType": "address",
          "name": "",
          "type": "address"
        }
      ],
      "stateMutability": "view",
      "type": "function",
      "constant": true
    },
    {
      "inputs": [],
      "name": "oneRoll",
      "outputs": [],
      "stateMutability": "payable",
      "type": "function",
      "payable": true
    },
    {
      "inputs": [],
      "name": "contractBalance",
      "outputs": [
        {
          "internalType": "uint256",
          "name": "",
          "type": "uint256"
        }
      ],
      "stateMutability": "view",
      "type": "function",
      "constant": true
    },
    {
      "inputs": [
        {
          "internalType": "uint256",
          "name": "rand1",
          "type": "uint256"
        },
        {
          "internalType": "uint256",
          "name": "rand2",
          "type": "uint256"
        },
        {
          "internalType": "uint256",
          "name": "rand3",
          "type": "uint256"
        }
      ],
      "name": "calculatePrize",
      "outputs": [
        {
          "internalType": "uint256",
          "name": "",
          "type": "uint256"
        }
      ],
      "stateMutability": "view",
      "type": "function",
      "constant": true
    },
    {
      "inputs": [],
      "name": "withdraw",
      "outputs": [],
      "stateMutability": "nonpayable",
      "type": "function"
    },
    {
      "inputs": [
        {
          "internalType": "address",
          "name": "user",
          "type": "address"
        }
      ],
      "name": "balanceOf",
      "outputs": [
        {
          "internalType": "uint256",
          "name": "",
          "type": "uint256"
        }
      ],
      "stateMutability": "view",
      "type": "function",
      "constant": true
    },
    {
      "inputs": [
        {
          "internalType": "uint256",
          "name": "_coinPrice",
          "type": "uint256"
        }
      ],
      "name": "setCoinPrice",
      "outputs": [],
      "stateMutability": "nonpayable",
      "type": "function"
    },
    {
      "inputs": [
        {
          "internalType": "uint256",
          "name": "_amount",
          "type": "uint256"
        }
      ],
      "name": "cashout",
      "outputs": [],
      "stateMutability": "nonpayable",
      "type": "function"
    }
  ],
  "bytecode": "0x6080604052662386f26fc1000060015534801561001b57600080fd5b5033600260006101000a81548173ffffffffffffffffffffffffffffffffffffffff021916908373ffffffffffffffffffffffffffffffffffffffff160217905550610ae38061006c6000396000f3fe6080604052600436106100865760003560e01c8063731bedd011610059578063731bedd0146101455780638b7afe2e14610170578063a9e2bcfe1461019b578063a9e732bb146101a5578063ad0f2916146101ce57610086565b806326e907751461008b5780633ccfd60b146100c8578063550b47b8146100df57806370a0823114610108575b600080fd5b34801561009757600080fd5b506100b260048036038101906100ad9190610758565b6101f9565b6040516100bf91906107ba565b60405180910390f35b3480156100d457600080fd5b506100dd610377565b005b3480156100eb57600080fd5b50610106600480360381019061010191906107d5565b61044a565b005b34801561011457600080fd5b5061012f600480360381019061012a9190610860565b6104ae565b60405161013c91906107ba565b60405180910390f35b34801561015157600080fd5b5061015a6104f7565b604051610167919061089c565b60405180910390f35b34801561017c57600080fd5b5061018561051b565b60405161019291906107ba565b60405180910390f35b6101a3610523565b005b3480156101b157600080fd5b506101cc60048036038101906101c791906107d5565b610619565b005b3480156101da57600080fd5b506101e36106bd565b6040516101f091906107ba565b60405180910390f35b600060058414801561020b5750600583145b80156102175750600582145b1561023257606460015461022b91906108e6565b9050610370565b6006841480156102425750600683145b801561024e5750600682145b1561026957600a60015461026291906108e6565b9050610370565b6004841480156102795750600483145b80156102855750600482145b156102a057600560015461029991906108e6565b9050610370565b6003841480156102b05750600383145b80156102bc5750600382145b156102d75760046001546102d091906108e6565b9050610370565b6002841480156102e75750600283145b80156102f35750600282145b1561030e57600360015461030791906108e6565b9050610370565b60018414801561031e5750600183145b801561032a5750600182145b1561034557600260015461033e91906108e6565b9050610370565b8284148061035257508184145b8061035c57508183145b1561036b576001549050610370565b600090505b9392505050565b6000600360003373ffffffffffffffffffffffffffffffffffffffff1673ffffffffffffffffffffffffffffffffffffffff1681526020019081526020016000205490506000600360003373ffffffffffffffffffffffffffffffffffffffff1673ffffffffffffffffffffffffffffffffffffffff168152602001908152602001600020819055503373ffffffffffffffffffffffffffffffffffffffff166108fc829081150290604051600060405180830381858888f19350505050158015610446573d6000803e3d6000fd5b5050565b3373ffffffffffffffffffffffffffffffffffffffff16600260009054906101000a900473ffffffffffffffffffffffffffffffffffffffff1673ffffffffffffffffffffffffffffffffffffffff16146104a457600080fd5b8060018190555050565b6000600360008373ffffffffffffffffffffffffffffffffffffffff1673ffffffffffffffffffffffffffffffffffffffff168152602001908152602001600020549050919050565b60008054906101000a900473ffffffffffffffffffffffffffffffffffffffff1681565b600047905090565b60015434101561053257600080fd5b600061053d346106c3565b90506000610556600a346105519190610928565b6106c3565b9050600061056f60143461056a9190610928565b6106c3565b9050600061057e8484846101f9565b90507f0d5c4756b6fa55030838b26a5949ffb7780d2ddb43de720b9cbc14fb3937906f338585856040516105b5949392919061095c565b60405180910390a180600360003373ffffffffffffffffffffffffffffffffffffffff1673ffffffffffffffffffffffffffffffffffffffff168152602001908152602001600020600082825461060c9190610928565b9250508190555050505050565b3373ffffffffffffffffffffffffffffffffffffffff16600260009054906101000a900473ffffffffffffffffffffffffffffffffffffffff1673ffffffffffffffffffffffffffffffffffffffff161461067357600080fd5b3373ffffffffffffffffffffffffffffffffffffffff166108fc829081150290604051600060405180830381858888f193505050501580156106b9573d6000803e3d6000fd5b5050565b60015481565b6000600160066001436106d691906109a1565b40846040516020016106e9929190610a21565b6040516020818303038152906040528051906020012060001c61070c9190610a7c565b6107169190610928565b9050919050565b600080fd5b6000819050919050565b61073581610722565b811461074057600080fd5b50565b6000813590506107528161072c565b92915050565b6000806000606084860312156107715761077061071d565b5b600061077f86828701610743565b935050602061079086828701610743565b92505060406107a186828701610743565b9150509250925092565b6107b481610722565b82525050565b60006020820190506107cf60008301846107ab565b92915050565b6000602082840312156107eb576107ea61071d565b5b60006107f984828501610743565b91505092915050565b600073ffffffffffffffffffffffffffffffffffffffff82169050919050565b600061082d82610802565b9050919050565b61083d81610822565b811461084857600080fd5b50565b60008135905061085a81610834565b92915050565b6000602082840312156108765761087561071d565b5b60006108848482850161084b565b91505092915050565b61089681610822565b82525050565b60006020820190506108b1600083018461088d565b92915050565b7f4e487b7100000000000000000000000000000000000000000000000000000000600052601160045260246000fd5b60006108f182610722565b91506108fc83610722565b925082820261090a81610722565b91508282048414831517610921576109206108b7565b5b5092915050565b600061093382610722565b915061093e83610722565b9250828201905080821115610956576109556108b7565b5b92915050565b6000608082019050610971600083018761088d565b61097e60208301866107ab565b61098b60408301856107ab565b61099860608301846107ab565b95945050505050565b60006109ac82610722565b91506109b783610722565b92508282039050818111156109cf576109ce6108b7565b5b92915050565b6000819050919050565b6000819050919050565b6109fa6109f5826109d5565b6109df565b82525050565b6000819050919050565b610a1b610a1682610722565b610a00565b82525050565b6000610a2d82856109e9565b602082019150610a3d8284610a0a565b6020820191508190509392505050565b7f4e487b7100000000000000000000000000000000000000000000000000000000600052601260045260246000fd5b6000610a8782610722565b9150610a9283610722565b925082610aa257610aa1610a4d565b5b82820690509291505056fea2646970667358221220706591294d0ee82bfa600fd87054591daead2c4bfd2f594336b2389b6fe8c1ce64736f6c63430008130033",
  "immutableReferences": {},
  "source": "//SPDX-License-Identifier: UNLICENSED\npragma solidity ^0.8.19;\n\ncontract SlotMachine {\n\n    address public slotMachineFunds;\n\n    uint256 public coinPrice = 0.01 ether;\n\n    address owner;\n\n    event Rolled(address sender, uint rand1, uint rand2, uint rand3);\n\n    mapping (address => uint) pendingWithdrawals;\n\n    modifier onlyOwner() {\n        require(owner == msg.sender);\n        _;\n    }\n\n    constructor() {\n        owner = msg.sender;\n    }\n\n    //the user plays one roll of the machine putting in money for the win\n    function oneRoll() public payable {\n        require(msg.value >= coinPrice);\n\n        uint rand1 = randomGen(msg.value);\n        uint rand2 = randomGen(msg.value + 10);\n        uint rand3 = randomGen(msg.value + 20);\n\n        uint result = calculatePrize(rand1, rand2, rand3);\n\n        emit Rolled(msg.sender, rand1, rand2, rand3);\n\n        pendingWithdrawals[msg.sender] += result;\n        \n    }\n    \n    function contractBalance() public view returns(uint) {\n        return address(this).balance;\n    }\n\n    function calculatePrize(uint rand1, uint rand2, uint rand3) public view returns(uint) {\n        if(rand1 == 5 && rand2 == 5 && rand3 == 5) {\n            return coinPrice * 100;\n        } else if (rand1 == 6 && rand2 == 6 && rand3 == 6) {\n            return coinPrice * 10;\n        } else if (rand1 == 4 && rand2 == 4 && rand3 == 4) {\n            return coinPrice * 5;\n        } else if (rand1 == 3 && rand2 == 3 && rand3 == 3) {\n            return coinPrice * 4;\n        } else if (rand1 == 2 && rand2 == 2 && rand3 == 2) {\n            return coinPrice * 3;\n        } else if (rand1 == 1 && rand2 == 1 && rand3 == 1) {\n            return coinPrice * 2;\n        } else if ((rand1 == rand2) || (rand1 == rand3) || (rand2 == rand3)) {\n            return coinPrice;\n        } else {\n            return 0;\n        }\n    }\n\n    function withdraw() public {\n        uint amount = pendingWithdrawals[msg.sender];\n\n        pendingWithdrawals[msg.sender] = 0;\n\n        payable(msg.sender).transfer(amount);\n    }\n\n    function balanceOf(address user) public view returns(uint) {\n        return pendingWithdrawals[user];\n    }\n\n    function setCoinPrice(uint _coinPrice) public onlyOwner {\n        coinPrice = _coinPrice;\n    }\n\n    function cashout(uint _amount) public onlyOwner {\n        payable(msg.sender).transfer(_amount);\n    }\n\n    function randomGen(uint seed) private view returns (uint randomNumber) {\n        return (uint(keccak256(abi.encodePacked(blockhash(block.number-1), seed ))) % 6) + 1;\n    }\n\n}\n",
  "sourcePath": "/Users/park/Desktop/hci/ethereum-slot-machine/contracts/SlotMachine.sol",
  "compiler": {
    "name": "solc",
    "version": "0.8.19+commit.7dd6d404.Emscripten.clang"
  },
  "schemaVersion": "3.4.13",
  "updatedAt": "2023-04-14T06:33:14.668Z",
  "networkType": "ethereum",
  "devdoc": {
    "kind": "dev",
    "methods": {},
    "version": 1
  },
  "userdoc": {
    "kind": "user",
    "methods": {},
    "version": 1
  }
}